{
  "contractName": "CRUD",
  "abi": [
    {
      "inputs": [],
      "payable": false,
      "stateMutability": "nonpayable",
      "type": "constructor"
    },
    {
      "anonymous": false,
      "inputs": [
        {
          "indexed": false,
          "internalType": "string",
          "name": "userName",
          "type": "string"
        },
        {
          "indexed": false,
          "internalType": "string",
          "name": "addr",
          "type": "string"
        },
        {
          "indexed": false,
          "internalType": "uint256",
          "name": "phno",
          "type": "uint256"
        },
        {
          "indexed": false,
          "internalType": "uint256",
          "name": "id",
          "type": "uint256"
        }
      ],
      "name": "UserEvent",
      "type": "event"
    },
    {
      "anonymous": false,
      "inputs": [
        {
          "indexed": false,
          "internalType": "uint256",
          "name": "id",
          "type": "uint256"
        },
        {
          "indexed": false,
          "internalType": "string",
          "name": "addr",
          "type": "string"
        }
      ],
      "name": "UserUpdated",
      "type": "event"
    },
    {
      "constant": true,
      "inputs": [],
      "name": "totalUsers",
      "outputs": [
        {
          "internalType": "uint256",
          "name": "",
          "type": "uint256"
        }
      ],
      "payable": false,
      "stateMutability": "view",
      "type": "function"
    },
    {
      "constant": true,
      "inputs": [
        {
          "internalType": "uint256",
          "name": "",
          "type": "uint256"
        }
      ],
      "name": "users",
      "outputs": [
        {
          "internalType": "string",
          "name": "name",
          "type": "string"
        },
        {
          "internalType": "string",
          "name": "addr",
          "type": "string"
        },
        {
          "internalType": "uint256",
          "name": "phno",
          "type": "uint256"
        },
        {
          "internalType": "uint256",
          "name": "userId",
          "type": "uint256"
        }
      ],
      "payable": false,
      "stateMutability": "view",
      "type": "function"
    },
    {
      "constant": false,
      "inputs": [
        {
          "internalType": "string",
          "name": "userName",
          "type": "string"
        },
        {
          "internalType": "string",
          "name": "addr",
          "type": "string"
        },
        {
          "internalType": "uint256",
          "name": "phno",
          "type": "uint256"
        },
        {
          "internalType": "uint256",
          "name": "id",
          "type": "uint256"
        }
      ],
      "name": "insert",
      "outputs": [
        {
          "internalType": "uint256",
          "name": "totalUser",
          "type": "uint256"
        }
      ],
      "payable": false,
      "stateMutability": "nonpayable",
      "type": "function"
    },
    {
      "constant": false,
      "inputs": [
        {
          "internalType": "uint256",
          "name": "id",
          "type": "uint256"
        },
        {
          "internalType": "string",
          "name": "addr",
          "type": "string"
        }
      ],
      "name": "updateUser",
      "outputs": [
        {
          "internalType": "bool",
          "name": "success",
          "type": "bool"
        }
      ],
      "payable": false,
      "stateMutability": "nonpayable",
      "type": "function"
    },
    {
      "constant": true,
      "inputs": [
        {
          "internalType": "uint256",
          "name": "userid",
          "type": "uint256"
        }
      ],
      "name": "getUserID",
      "outputs": [
        {
          "internalType": "string",
          "name": "userName",
          "type": "string"
        },
        {
          "internalType": "string",
          "name": "addr",
          "type": "string"
        },
        {
          "internalType": "uint256",
          "name": "phno",
          "type": "uint256"
        },
        {
          "internalType": "uint256",
          "name": "id",
          "type": "uint256"
        }
      ],
      "payable": false,
      "stateMutability": "view",
      "type": "function"
    },
    {
      "constant": true,
      "inputs": [],
      "name": "getAllUsers",
      "outputs": [
        {
          "components": [
            {
              "internalType": "string",
              "name": "name",
              "type": "string"
            },
            {
              "internalType": "string",
              "name": "addr",
              "type": "string"
            },
            {
              "internalType": "uint256",
              "name": "phno",
              "type": "uint256"
            },
            {
              "internalType": "uint256",
              "name": "userId",
              "type": "uint256"
            }
          ],
          "internalType": "struct CRUD.user[]",
          "name": "",
          "type": "tuple[]"
        }
      ],
      "payable": false,
      "stateMutability": "view",
      "type": "function"
    },
    {
      "constant": true,
      "inputs": [],
      "name": "getTotalUsers",
      "outputs": [
        {
          "internalType": "uint256",
          "name": "length",
          "type": "uint256"
        }
      ],
      "payable": false,
      "stateMutability": "view",
      "type": "function"
    }
  ],
  "bytecode": "0x608060405234801561001057600080fd5b5060006001819055506110a0806100286000396000f3fe608060405234801561001057600080fd5b506004361061007d5760003560e01c8063bd3bdd481161005b578063bd3bdd4814610106578063bff1f9e114610136578063d85340e714610154578063e2842d79146101845761007d565b8063365b98b2146100825780639be572f6146100b55780639ce75519146100d3575b600080fd5b61009c60048036036100979190810190610b3d565b6101a2565b6040516100ac9493929190610e55565b60405180910390f35b6100bd61030f565b6040516100ca9190610ec8565b60405180910390f35b6100ed60048036036100e89190810190610b3d565b61031b565b6040516100fd9493929190610e02565b60405180910390f35b610120600480360361011b9190810190610aaa565b610567565b60405161012d9190610ec8565b60405180910390f35b61013e610670565b60405161014b9190610ec8565b60405180910390f35b61016e60048036036101699190810190610b66565b610676565b60405161017b9190610de7565b60405180910390f35b61018c61073d565b6040516101999190610dc5565b60405180910390f35b600081815481106101af57fe5b9060005260206000209060040201600091509050806000018054600181600116156101000203166002900480601f01602080910402602001604051908101604052809291908181526020018280546001816001161561010002031660029004801561025b5780601f106102305761010080835404028352916020019161025b565b820191906000526020600020905b81548152906001019060200180831161023e57829003601f168201915b505050505090806001018054600181600116156101000203166002900480601f0160208091040260200160405190810160405280929190818152602001828054600181600116156101000203166002900480156102f95780601f106102ce576101008083540402835291602001916102f9565b820191906000526020600020905b8154815290600101906020018083116102dc57829003601f168201915b5050505050908060020154908060030154905084565b60008080549050905090565b60608060008060008090505b60015481101561052457856000828154811061033f57fe5b9060005260206000209060040201600301541415610517576000818154811061036457fe5b90600052602060002090600402016000016000828154811061038257fe5b9060005260206000209060040201600101600083815481106103a057fe5b906000526020600020906004020160020154600084815481106103bf57fe5b906000526020600020906004020160030154838054600181600116156101000203166002900480601f0160208091040260200160405190810160405280929190818152602001828054600181600116156101000203166002900480156104665780601f1061043b57610100808354040283529160200191610466565b820191906000526020600020905b81548152906001019060200180831161044957829003601f168201915b50505050509350828054600181600116156101000203166002900480601f0160208091040260200160405190810160405280929190818152602001828054600181600116156101000203166002900480156105025780601f106104d757610100808354040283529160200191610502565b820191906000526020600020905b8154815290600101906020018083116104e557829003601f168201915b50505050509250945094509450945050610560565b8080600101915050610327565b506040517f08c379a000000000000000000000000000000000000000000000000000000000815260040161055790610ea8565b60405180910390fd5b9193509193565b60006105716108f4565b60405180608001604052808781526020018681526020018581526020018481525090506000819080600181540180825580915050906001820390600052602060002090600402016000909192909190915060008201518160000190805190602001906105de92919061091c565b5060208201518160010190805190602001906105fb92919061091c565b5060408201518160020155606082015181600301555050506001600081548092919060010191905055507f6f29ea652b7d70568b48b11b6ce198a5bd1d450a3c886ba65e9aa1495b5ecfbc8686868660405161065a9493929190610e02565b60405180910390a1600154915050949350505050565b60015481565b600080600090505b60015481101561073157836000828154811061069657fe5b90600052602060002090600402016003015414156107245782600082815481106106bc57fe5b906000526020600020906004020160010190805190602001906106e092919061099c565b507f5898c2fc7726f88f217cd77fc8d44127690540692e1c694c0c958efcecbe5d748484604051610712929190610ee3565b60405180910390a16001915050610737565b808060010191505061067e565b50600090505b92915050565b60606000805480602002602001604051908101604052809291908181526020016000905b828210156108eb5783829060005260206000209060040201604051806080016040529081600082018054600181600116156101000203166002900480601f01602080910402602001604051908101604052809291908181526020018280546001816001161561010002031660029004801561081d5780601f106107f25761010080835404028352916020019161081d565b820191906000526020600020905b81548152906001019060200180831161080057829003601f168201915b50505050508152602001600182018054600181600116156101000203166002900480601f0160208091040260200160405190810160405280929190818152602001828054600181600116156101000203166002900480156108bf5780601f10610894576101008083540402835291602001916108bf565b820191906000526020600020905b8154815290600101906020018083116108a257829003601f168201915b505050505081526020016002820154815260200160038201548152505081526020019060010190610761565b50505050905090565b6040518060800160405280606081526020016060815260200160008152602001600081525090565b828054600181600116156101000203166002900490600052602060002090601f016020900481019282601f1061095d57805160ff191683800117855561098b565b8280016001018555821561098b579182015b8281111561098a57825182559160200191906001019061096f565b5b5090506109989190610a1c565b5090565b828054600181600116156101000203166002900490600052602060002090601f016020900481019282601f106109dd57805160ff1916838001178555610a0b565b82800160010185558215610a0b579182015b82811115610a0a5782518255916020019190600101906109ef565b5b509050610a189190610a1c565b5090565b610a3e91905b80821115610a3a576000816000905550600101610a22565b5090565b90565b600082601f830112610a5257600080fd5b8135610a65610a6082610f40565b610f13565b91508082526020830160208301858383011115610a8157600080fd5b610a8c838284610ff3565b50505092915050565b600081359050610aa481611046565b92915050565b60008060008060808587031215610ac057600080fd5b600085013567ffffffffffffffff811115610ada57600080fd5b610ae687828801610a41565b945050602085013567ffffffffffffffff811115610b0357600080fd5b610b0f87828801610a41565b9350506040610b2087828801610a95565b9250506060610b3187828801610a95565b91505092959194509250565b600060208284031215610b4f57600080fd5b6000610b5d84828501610a95565b91505092915050565b60008060408385031215610b7957600080fd5b6000610b8785828601610a95565b925050602083013567ffffffffffffffff811115610ba457600080fd5b610bb085828601610a41565b9150509250929050565b6000610bc68383610d3d565b905092915050565b6000610bd982610f7c565b610be38185610faa565b935083602082028501610bf585610f6c565b8060005b85811015610c315784840389528151610c128582610bba565b9450610c1d83610f9d565b925060208a01995050600181019050610bf9565b50829750879550505050505092915050565b610c4c81610fdd565b82525050565b6000610c5d82610f92565b610c678185610fcc565b9350610c77818560208601611002565b610c8081611035565b840191505092915050565b6000610c9682610f87565b610ca08185610fbb565b9350610cb0818560208601611002565b610cb981611035565b840191505092915050565b6000610ccf82610f87565b610cd98185610fcc565b9350610ce9818560208601611002565b610cf281611035565b840191505092915050565b6000610d0a600e83610fcc565b91507f75736572206e6f7420666f756e640000000000000000000000000000000000006000830152602082019050919050565b60006080830160008301518482036000860152610d5a8282610c8b565b91505060208301518482036020860152610d748282610c8b565b9150506040830151610d896040860182610da7565b506060830151610d9c6060860182610da7565b508091505092915050565b610db081610fe9565b82525050565b610dbf81610fe9565b82525050565b60006020820190508181036000830152610ddf8184610bce565b905092915050565b6000602082019050610dfc6000830184610c43565b92915050565b60006080820190508181036000830152610e1c8187610c52565b90508181036020830152610e308186610c52565b9050610e3f6040830185610db6565b610e4c6060830184610db6565b95945050505050565b60006080820190508181036000830152610e6f8187610cc4565b90508181036020830152610e838186610cc4565b9050610e926040830185610db6565b610e9f6060830184610db6565b95945050505050565b60006020820190508181036000830152610ec181610cfd565b9050919050565b6000602082019050610edd6000830184610db6565b92915050565b6000604082019050610ef86000830185610db6565b8181036020830152610f0a8184610c52565b90509392505050565b6000604051905081810181811067ffffffffffffffff82111715610f3657600080fd5b8060405250919050565b600067ffffffffffffffff821115610f5757600080fd5b601f19601f8301169050602081019050919050565b6000819050602082019050919050565b600081519050919050565b600081519050919050565b600081519050919050565b6000602082019050919050565b600082825260208201905092915050565b600082825260208201905092915050565b600082825260208201905092915050565b60008115159050919050565b6000819050919050565b82818337600083830152505050565b60005b83811015611020578082015181840152602081019050611005565b8381111561102f576000848401525b50505050565b6000601f19601f8301169050919050565b61104f81610fe9565b811461105a57600080fd5b5056fea365627a7a72315820effc3dbff2e468470ad2fd4f1244a1e5dcd18669d09f1b3bda1b9ac5dc46b48a6c6578706572696d656e74616cf564736f6c63430005100040",
  "source": "pragma solidity >=0.4.22 <0.9.0;\r\npragma experimental ABIEncoderV2;\r\n\r\n\r\n\r\ncontract CRUD {\r\n    \r\n   struct user{\r\n      string name;\r\n      string addr;\r\n      uint256 phno;\r\n      uint256 userId;\r\n   }\r\n   user[] public users;\r\n   uint256 public totalUsers;\r\n  \r\n    constructor() public {\r\n   \r\n       totalUsers=0;\r\n   }\r\n\r\n   \r\n   event UserUpdated(uint256  id, string addr);\r\n   \r\nevent UserEvent (string userName,string addr, uint256 phno,uint256 id);\r\n   \r\n   \r\n   function insert( string memory userName , string memory addr , uint256  phno,uint256  id) public returns (uint256 totalUser){\r\n        user memory newUser = user(userName , addr, phno,id);\r\n        \r\n        users.push(newUser);\r\n        totalUsers++;\r\n        emit UserEvent (userName, addr, phno,id);\r\n        return totalUsers;\r\n   }\r\n   \r\n  \r\n     function updateUser(uint256  id, string memory addr) public returns (bool success){\r\n       for(uint256 i =0; i< totalUsers; i++){\r\n           if(users[i].userId==id){\r\n             users[i].addr = addr;\r\n              emit UserUpdated(id, addr);\r\n              return true;\r\n           }\r\n       }\r\n       return false;\r\n   }\r\n  \r\n\r\n   function getUserID(uint256  userid) public view returns(string memory userName,string memory addr, uint256 phno,uint256 id){\r\n        for(uint256 i =0; i< totalUsers; i++){\r\n           if(users[i].userId ==userid){\r\n              \r\n              return (users[i].name , users[i].addr , users[i].phno,users[i].userId);\r\n           }\r\n       }\r\n       revert('user not found');\r\n   }   \r\n      function getAllUsers() public view returns (user[] memory)\r\n    {    \r\n           \r\n         return (users);\r\n           \r\n       \r\n    }\r\n\r\n   function compareStrings(string memory a, string memory b) internal pure  returns (bool) {\r\n    return (keccak256(abi.encodePacked((a))) == keccak256(abi.encodePacked((b))));\r\n}\r\n   \r\n    function getTotalUsers() public view returns (uint256 length){\r\n      return users.length;\r\n   }\r\n\r\n    function append(string memory a, string memory b) internal pure returns (string memory) {\r\n\r\n    return string(abi.encodePacked(a,\"  \", b));\r\n\r\n}\r\n}",
  "sourcePath": "C:/Users/COOL/Desktop/tcs/blockchain/contracts/CRUD.sol",
  "compiler": {
    "name": "solc",
    "version": "0.5.16+commit.9c3226ce.Emscripten.clang"
  },
  "schemaVersion": "3.4.1",
  "updatedAt": "2021-06-03T06:58:10.959Z",
  "devdoc": {
    "methods": {}
  },
  "userdoc": {
    "methods": {}
  }
}